{
  "contractName": "MultiSigWallet",
  "abi": [
    {
      "inputs": [
        {
          "internalType": "address[]",
          "name": "_owners",
          "type": "address[]"
        },
        {
          "internalType": "uint256",
          "name": "_requiredConfirmations",
          "type": "uint256"
        }
      ],
      "stateMutability": "nonpayable",
      "type": "constructor"
    },
    {
      "anonymous": false,
      "inputs": [
        {
          "indexed": true,
          "internalType": "address",
          "name": "owner",
          "type": "address"
        },
        {
          "indexed": false,
          "internalType": "uint256",
          "name": "transactionId",
          "type": "uint256"
        }
      ],
      "name": "ExecutedTransaction",
      "type": "event"
    },
    {
      "anonymous": false,
      "inputs": [
        {
          "indexed": true,
          "internalType": "address",
          "name": "owner",
          "type": "address"
        },
        {
          "indexed": false,
          "internalType": "uint256",
          "name": "transactionId",
          "type": "uint256"
        }
      ],
      "name": "TransactionApproved",
      "type": "event"
    },
    {
      "anonymous": false,
      "inputs": [
        {
          "indexed": true,
          "internalType": "address",
          "name": "owner",
          "type": "address"
        },
        {
          "indexed": true,
          "internalType": "address",
          "name": "destination",
          "type": "address"
        },
        {
          "indexed": false,
          "internalType": "uint256",
          "name": "amount",
          "type": "uint256"
        },
        {
          "indexed": false,
          "internalType": "uint256",
          "name": "transactionId",
          "type": "uint256"
        }
      ],
      "name": "TransactionProposed",
      "type": "event"
    },
    {
      "anonymous": false,
      "inputs": [
        {
          "indexed": true,
          "internalType": "address",
          "name": "sender",
          "type": "address"
        },
        {
          "indexed": false,
          "internalType": "uint256",
          "name": "amount",
          "type": "uint256"
        },
        {
          "indexed": false,
          "internalType": "uint256",
          "name": "balance",
          "type": "uint256"
        }
      ],
      "name": "contractFallback",
      "type": "event"
    },
    {
      "anonymous": false,
      "inputs": [
        {
          "indexed": true,
          "internalType": "address",
          "name": "sender",
          "type": "address"
        },
        {
          "indexed": false,
          "internalType": "uint256",
          "name": "amount",
          "type": "uint256"
        },
        {
          "indexed": false,
          "internalType": "uint256",
          "name": "balance",
          "type": "uint256"
        }
      ],
      "name": "deposit2Contract",
      "type": "event"
    },
    {
      "anonymous": false,
      "inputs": [
        {
          "indexed": true,
          "internalType": "address",
          "name": "owner",
          "type": "address"
        },
        {
          "indexed": false,
          "internalType": "uint256",
          "name": "transactionId",
          "type": "uint256"
        }
      ],
      "name": "rejectedTransaction",
      "type": "event"
    },
    {
      "stateMutability": "payable",
      "type": "fallback"
    },
    {
      "inputs": [
        {
          "internalType": "address",
          "name": "",
          "type": "address"
        }
      ],
      "name": "isOwner",
      "outputs": [
        {
          "internalType": "bool",
          "name": "",
          "type": "bool"
        }
      ],
      "stateMutability": "view",
      "type": "function"
    },
    {
      "inputs": [
        {
          "internalType": "uint256",
          "name": "",
          "type": "uint256"
        }
      ],
      "name": "owners",
      "outputs": [
        {
          "internalType": "address",
          "name": "",
          "type": "address"
        }
      ],
      "stateMutability": "view",
      "type": "function"
    },
    {
      "inputs": [],
      "name": "requiredConfirmations",
      "outputs": [
        {
          "internalType": "uint256",
          "name": "",
          "type": "uint256"
        }
      ],
      "stateMutability": "view",
      "type": "function"
    },
    {
      "inputs": [
        {
          "internalType": "uint256",
          "name": "",
          "type": "uint256"
        }
      ],
      "name": "revokedTransactions",
      "outputs": [
        {
          "internalType": "address",
          "name": "txSender",
          "type": "address"
        },
        {
          "internalType": "address payable",
          "name": "destination",
          "type": "address"
        },
        {
          "internalType": "uint256",
          "name": "amount",
          "type": "uint256"
        },
        {
          "internalType": "bool",
          "name": "isExecuted",
          "type": "bool"
        },
        {
          "internalType": "uint256",
          "name": "noOfConfirmations",
          "type": "uint256"
        },
        {
          "internalType": "uint256",
          "name": "txId",
          "type": "uint256"
        },
        {
          "internalType": "bytes",
          "name": "data",
          "type": "bytes"
        }
      ],
      "stateMutability": "view",
      "type": "function"
    },
    {
      "inputs": [
        {
          "internalType": "uint256",
          "name": "",
          "type": "uint256"
        }
      ],
      "name": "successfulTransactions",
      "outputs": [
        {
          "internalType": "address",
          "name": "txSender",
          "type": "address"
        },
        {
          "internalType": "address payable",
          "name": "destination",
          "type": "address"
        },
        {
          "internalType": "uint256",
          "name": "amount",
          "type": "uint256"
        },
        {
          "internalType": "bool",
          "name": "isExecuted",
          "type": "bool"
        },
        {
          "internalType": "uint256",
          "name": "noOfConfirmations",
          "type": "uint256"
        },
        {
          "internalType": "uint256",
          "name": "txId",
          "type": "uint256"
        },
        {
          "internalType": "bytes",
          "name": "data",
          "type": "bytes"
        }
      ],
      "stateMutability": "view",
      "type": "function"
    },
    {
      "inputs": [
        {
          "internalType": "uint256",
          "name": "",
          "type": "uint256"
        }
      ],
      "name": "transactions",
      "outputs": [
        {
          "internalType": "address",
          "name": "txSender",
          "type": "address"
        },
        {
          "internalType": "address payable",
          "name": "destination",
          "type": "address"
        },
        {
          "internalType": "uint256",
          "name": "amount",
          "type": "uint256"
        },
        {
          "internalType": "bool",
          "name": "isExecuted",
          "type": "bool"
        },
        {
          "internalType": "uint256",
          "name": "noOfConfirmations",
          "type": "uint256"
        },
        {
          "internalType": "uint256",
          "name": "txId",
          "type": "uint256"
        },
        {
          "internalType": "bytes",
          "name": "data",
          "type": "bytes"
        }
      ],
      "stateMutability": "view",
      "type": "function"
    },
    {
      "inputs": [],
      "name": "toggleCircuitBreaker",
      "outputs": [],
      "stateMutability": "nonpayable",
      "type": "function"
    },
    {
      "inputs": [],
      "name": "deposit",
      "outputs": [],
      "stateMutability": "payable",
      "type": "function"
    },
    {
      "inputs": [],
      "name": "checkBalance",
      "outputs": [
        {
          "internalType": "uint256",
          "name": "",
          "type": "uint256"
        }
      ],
      "stateMutability": "view",
      "type": "function"
    },
    {
      "inputs": [],
      "name": "viewOwners",
      "outputs": [
        {
          "internalType": "address[]",
          "name": "",
          "type": "address[]"
        }
      ],
      "stateMutability": "view",
      "type": "function"
    },
    {
      "inputs": [],
      "name": "viewTransactions",
      "outputs": [
        {
          "internalType": "address[]",
          "name": "",
          "type": "address[]"
        },
        {
          "internalType": "address[]",
          "name": "",
          "type": "address[]"
        },
        {
          "internalType": "uint256[]",
          "name": "",
          "type": "uint256[]"
        },
        {
          "internalType": "uint256[]",
          "name": "",
          "type": "uint256[]"
        },
        {
          "internalType": "uint256[]",
          "name": "",
          "type": "uint256[]"
        }
      ],
      "stateMutability": "view",
      "type": "function"
    },
    {
      "inputs": [],
      "name": "viewSuccessfulTransactions",
      "outputs": [
        {
          "internalType": "address[]",
          "name": "",
          "type": "address[]"
        },
        {
          "internalType": "address[]",
          "name": "",
          "type": "address[]"
        },
        {
          "internalType": "uint256[]",
          "name": "",
          "type": "uint256[]"
        },
        {
          "internalType": "uint256[]",
          "name": "",
          "type": "uint256[]"
        },
        {
          "internalType": "uint256[]",
          "name": "",
          "type": "uint256[]"
        }
      ],
      "stateMutability": "view",
      "type": "function"
    },
    {
      "inputs": [],
      "name": "viewFailedTransactions",
      "outputs": [
        {
          "internalType": "address[]",
          "name": "",
          "type": "address[]"
        },
        {
          "internalType": "address[]",
          "name": "",
          "type": "address[]"
        },
        {
          "internalType": "uint256[]",
          "name": "",
          "type": "uint256[]"
        },
        {
          "internalType": "uint256[]",
          "name": "",
          "type": "uint256[]"
        },
        {
          "internalType": "uint256[]",
          "name": "",
          "type": "uint256[]"
        }
      ],
      "stateMutability": "view",
      "type": "function"
    },
    {
      "inputs": [
        {
          "internalType": "address payable",
          "name": "_destination",
          "type": "address"
        },
        {
          "internalType": "uint256",
          "name": "_amount",
          "type": "uint256"
        },
        {
          "internalType": "bytes",
          "name": "_data",
          "type": "bytes"
        }
      ],
      "name": "proposeTransaction",
      "outputs": [],
      "stateMutability": "nonpayable",
      "type": "function"
    },
    {
      "inputs": [
        {
          "internalType": "uint256",
          "name": "_transactionId",
          "type": "uint256"
        }
      ],
      "name": "approveTransaction",
      "outputs": [],
      "stateMutability": "nonpayable",
      "type": "function"
    },
    {
      "inputs": [
        {
          "internalType": "uint256",
          "name": "_transactionId",
          "type": "uint256"
        }
      ],
      "name": "executeTransaction",
      "outputs": [],
      "stateMutability": "nonpayable",
      "type": "function"
    },
    {
      "inputs": [
        {
          "internalType": "uint256",
          "name": "_transactionId",
          "type": "uint256"
        }
      ],
      "name": "rejectTransaction",
      "outputs": [],
      "stateMutability": "nonpayable",
      "type": "function"
    }
  ],
  "bytecode": "0x608060405260018060006101000a81548160ff0219169083151502179055503480156200002b57600080fd5b506040516200381e3803806200381e833981810160405260408110156200005157600080fd5b81019080805160405193929190846401000000008211156200007257600080fd5b838201915060208201858111156200008957600080fd5b8251866020820283011164010000000082111715620000a757600080fd5b8083526020830192505050908051906020019060200280838360005b83811015620000e0578082015181840152602081019050620000c3565b5050505090500160405260200180519060200190929190505050600160008190555060018251116200015e576040517f08c379a000000000000000000000000000000000000000000000000000000000815260040180806020018281038252603b815260200180620037e3603b913960400191505060405180910390fd5b60018111801562000170575081518111155b6200017a57600080fd5b60005b8251811015620003cf5760008382815181106200019657fe5b60200260200101519050600073ffffffffffffffffffffffffffffffffffffffff168173ffffffffffffffffffffffffffffffffffffffff16141562000244576040517f08c379a00000000000000000000000000000000000000000000000000000000081526004018080602001828103825260198152602001807f54686973206973206e6f7420612076616c6964206f776e65720000000000000081525060200191505060405180910390fd5b600660008273ffffffffffffffffffffffffffffffffffffffff1673ffffffffffffffffffffffffffffffffffffffff16815260200190815260200160002060009054906101000a900460ff161562000305576040517f08c379a00000000000000000000000000000000000000000000000000000000081526004018080602001828103825260108152602001807f6f776e6572206e6f7420756e697175650000000000000000000000000000000081525060200191505060405180910390fd5b6001600660008373ffffffffffffffffffffffffffffffffffffffff1673ffffffffffffffffffffffffffffffffffffffff16815260200190815260200160002060006101000a81548160ff0219169083151502179055506005819080600181540180825580915050600190039060005260206000200160009091909190916101000a81548173ffffffffffffffffffffffffffffffffffffffff021916908373ffffffffffffffffffffffffffffffffffffffff1602179055505080806001019150506200017d565b508060078190555050506133fa80620003e96000396000f3fe6080604052600436106101025760003560e01c80635e90852d11610095578063ce1754e711610064578063ce1754e7146109a3578063d0e30db014610b2f578063d5eb63cc14610b39578063ee22610b14610b50578063f89f248714610b8b57610103565b80635e90852d1461072157806382e717f7146108135780639ace38c21461083e578063c71daccb1461097857610103565b806327207230116100d157806327207230146103865780632f54bf6e146104c05780633e55ed72146105295780634f6d6922146106b557610103565b8063025e7c271461015b57806305bf37aa146101d657806308ab10a214610211578063242232d11461034b57610103565b5b3373ffffffffffffffffffffffffffffffffffffffff167f6516b3c931a182ac0cb5aec31a6c8ca76ed627a0b478aded50734de5041893c33447604051808381526020018281526020019250505060405180910390a2005b34801561016757600080fd5b506101946004803603602081101561017e57600080fd5b8101908080359060200190929190505050610d17565b604051808273ffffffffffffffffffffffffffffffffffffffff1673ffffffffffffffffffffffffffffffffffffffff16815260200191505060405180910390f35b3480156101e257600080fd5b5061020f600480360360208110156101f957600080fd5b8101908080359060200190929190505050610d53565b005b34801561021d57600080fd5b5061024a6004803603602081101561023457600080fd5b810190808035906020019092919050505061147b565b604051808873ffffffffffffffffffffffffffffffffffffffff1673ffffffffffffffffffffffffffffffffffffffff1681526020018773ffffffffffffffffffffffffffffffffffffffff1673ffffffffffffffffffffffffffffffffffffffff1681526020018681526020018515151515815260200184815260200183815260200180602001828103825283818151815260200191508051906020019080838360005b8381101561030a5780820151818401526020810190506102ef565b50505050905090810190601f1680156103375780820380516001836020036101000a031916815260200191505b509850505050505050505060405180910390f35b34801561035757600080fd5b506103846004803603602081101561036e57600080fd5b81019080803590602001909291905050506115af565b005b34801561039257600080fd5b506103bf600480360360208110156103a957600080fd5b8101908080359060200190929190505050611898565b604051808873ffffffffffffffffffffffffffffffffffffffff1673ffffffffffffffffffffffffffffffffffffffff1681526020018773ffffffffffffffffffffffffffffffffffffffff1673ffffffffffffffffffffffffffffffffffffffff1681526020018681526020018515151515815260200184815260200183815260200180602001828103825283818151815260200191508051906020019080838360005b8381101561047f578082015181840152602081019050610464565b50505050905090810190601f1680156104ac5780820380516001836020036101000a031916815260200191505b509850505050505050505060405180910390f35b3480156104cc57600080fd5b5061050f600480360360208110156104e357600080fd5b81019080803573ffffffffffffffffffffffffffffffffffffffff1690602001909291905050506119cc565b604051808215151515815260200191505060405180910390f35b34801561053557600080fd5b5061053e6119ec565b60405180806020018060200180602001806020018060200186810386528b818151815260200191508051906020019060200280838360005b83811015610591578082015181840152602081019050610576565b5050505090500186810385528a818151815260200191508051906020019060200280838360005b838110156105d35780820151818401526020810190506105b8565b50505050905001868103845289818151815260200191508051906020019060200280838360005b838110156106155780820151818401526020810190506105fa565b50505050905001868103835288818151815260200191508051906020019060200280838360005b8381101561065757808201518184015260208101905061063c565b50505050905001868103825287818151815260200191508051906020019060200280838360005b8381101561069957808201518184015260208101905061067e565b505050509050019a505050505050505050505060405180910390f35b3480156106c157600080fd5b506106ca611d6e565b6040518080602001828103825283818151815260200191508051906020019060200280838360005b8381101561070d5780820151818401526020810190506106f2565b505050509050019250505060405180910390f35b34801561072d57600080fd5b506108116004803603606081101561074457600080fd5b81019080803573ffffffffffffffffffffffffffffffffffffffff169060200190929190803590602001909291908035906020019064010000000081111561078b57600080fd5b82018360208201111561079d57600080fd5b803590602001918460018302840111640100000000831117156107bf57600080fd5b91908080601f016020809104026020016040519081016040528093929190818152602001838380828437600081840152601f19601f820116905080830192505050505050509192919290505050611dfc565b005b34801561081f57600080fd5b506108286120b1565b6040518082815260200191505060405180910390f35b34801561084a57600080fd5b506108776004803603602081101561086157600080fd5b81019080803590602001909291905050506120b7565b604051808873ffffffffffffffffffffffffffffffffffffffff1673ffffffffffffffffffffffffffffffffffffffff1681526020018773ffffffffffffffffffffffffffffffffffffffff1673ffffffffffffffffffffffffffffffffffffffff1681526020018681526020018515151515815260200184815260200183815260200180602001828103825283818151815260200191508051906020019080838360005b8381101561093757808201518184015260208101905061091c565b50505050905090810190601f1680156109645780820380516001836020036101000a031916815260200191505b509850505050505050505060405180910390f35b34801561098457600080fd5b5061098d6121eb565b6040518082815260200191505060405180910390f35b3480156109af57600080fd5b506109b86121f3565b60405180806020018060200180602001806020018060200186810386528b818151815260200191508051906020019060200280838360005b83811015610a0b5780820151818401526020810190506109f0565b5050505090500186810385528a818151815260200191508051906020019060200280838360005b83811015610a4d578082015181840152602081019050610a32565b50505050905001868103845289818151815260200191508051906020019060200280838360005b83811015610a8f578082015181840152602081019050610a74565b50505050905001868103835288818151815260200191508051906020019060200280838360005b83811015610ad1578082015181840152602081019050610ab6565b50505050905001868103825287818151815260200191508051906020019060200280838360005b83811015610b13578082015181840152602081019050610af8565b505050509050019a505050505050505050505060405180910390f35b610b37612575565b005b348015610b4557600080fd5b50610b4e6125cd565b005b348015610b5c57600080fd5b50610b8960048036036020811015610b7357600080fd5b81019080803590602001909291905050506126da565b005b348015610b9757600080fd5b50610ba0612e6a565b60405180806020018060200180602001806020018060200186810386528b818151815260200191508051906020019060200280838360005b83811015610bf3578082015181840152602081019050610bd8565b5050505090500186810385528a818151815260200191508051906020019060200280838360005b83811015610c35578082015181840152602081019050610c1a565b50505050905001868103845289818151815260200191508051906020019060200280838360005b83811015610c77578082015181840152602081019050610c5c565b50505050905001868103835288818151815260200191508051906020019060200280838360005b83811015610cb9578082015181840152602081019050610c9e565b50505050905001868103825287818151815260200191508051906020019060200280838360005b83811015610cfb578082015181840152602081019050610ce0565b505050509050019a505050505050505050505060405180910390f35b60058181548110610d2457fe5b906000526020600020016000915054906101000a900473ffffffffffffffffffffffffffffffffffffffff1681565b600660003373ffffffffffffffffffffffffffffffffffffffff1673ffffffffffffffffffffffffffffffffffffffff16815260200190815260200160002060009054906101000a900460ff16610e12576040517f08c379a000000000000000000000000000000000000000000000000000000000815260040180806020018281038252601a8152602001807f596f7520617265206e6f742070617274206f66206f776e65727300000000000081525060200191505060405180910390fd5b8060008110158015610e2957506002805490508111155b610e9b576040517f08c379a000000000000000000000000000000000000000000000000000000000815260040180806020018281038252601c8152602001807f6e6f742077697468696e207472616e73616374696f6e2072616e67650000000081525060200191505060405180910390fd5b8160028181548110610ea957fe5b906000526020600020906008020160040160009054906101000a900460ff1615610f3b576040517f08c379a000000000000000000000000000000000000000000000000000000000815260040180806020018281038252601c8152602001807f5472616e73616374696f6e20616c72656164792065786563757465640000000081525060200191505060405180910390fd5b600060028481548110610f4a57fe5b906000526020600020906008020190508060030160003373ffffffffffffffffffffffffffffffffffffffff1673ffffffffffffffffffffffffffffffffffffffff16815260200190815260200160002060009054906101000a900460ff1661101b576040517f08c379a00000000000000000000000000000000000000000000000000000000081526004018080602001828103825260188152602001807f5472616e73616374696f6e206e6f7420417070726f766564000000000000000081525060200191505060405180910390fd5b60008160030160003373ffffffffffffffffffffffffffffffffffffffff1673ffffffffffffffffffffffffffffffffffffffff16815260200190815260200160002060006101000a81548160ff0219169083151502179055506001816005016000828254039250508190555060048190806001815401808255809150506001900390600052602060002090600802016000909190919091506000820160009054906101000a900473ffffffffffffffffffffffffffffffffffffffff168160000160006101000a81548173ffffffffffffffffffffffffffffffffffffffff021916908373ffffffffffffffffffffffffffffffffffffffff1602179055506001820160009054906101000a900473ffffffffffffffffffffffffffffffffffffffff168160010160006101000a81548173ffffffffffffffffffffffffffffffffffffffff021916908373ffffffffffffffffffffffffffffffffffffffff160217905550600282015481600201556004820160009054906101000a900460ff168160040160006101000a81548160ff0219169083151502179055506005820154816005015560068201548160060155600782018160070190805460018160011615610100020316600290046111f49291906131ec565b50505060026001600280549050038154811061120c57fe5b90600052602060002090600802016002858154811061122757fe5b90600052602060002090600802016000820160009054906101000a900473ffffffffffffffffffffffffffffffffffffffff168160000160006101000a81548173ffffffffffffffffffffffffffffffffffffffff021916908373ffffffffffffffffffffffffffffffffffffffff1602179055506001820160009054906101000a900473ffffffffffffffffffffffffffffffffffffffff168160010160006101000a81548173ffffffffffffffffffffffffffffffffffffffff021916908373ffffffffffffffffffffffffffffffffffffffff160217905550600282015481600201556004820160009054906101000a900460ff168160040160006101000a81548160ff0219169083151502179055506005820154816005015560068201548160060155600782018160070190805460018160011615610100020316600290046113759291906131ec565b50905050600280548061138457fe5b6001900381819060005260206000209060080201600080820160006101000a81549073ffffffffffffffffffffffffffffffffffffffff02191690556001820160006101000a81549073ffffffffffffffffffffffffffffffffffffffff021916905560028201600090556004820160006101000a81549060ff0219169055600582016000905560068201600090556007820160006114239190613273565b505090553373ffffffffffffffffffffffffffffffffffffffff167f151cc99212378237b4f72dc4d62087ccac5d5d02c54ff6ba56226e2e575365d0856040518082815260200191505060405180910390a250505050565b6003818154811061148857fe5b90600052602060002090600802016000915090508060000160009054906101000a900473ffffffffffffffffffffffffffffffffffffffff16908060010160009054906101000a900473ffffffffffffffffffffffffffffffffffffffff16908060020154908060040160009054906101000a900460ff1690806005015490806006015490806007018054600181600116156101000203166002900480601f0160208091040260200160405190810160405280929190818152602001828054600181600116156101000203166002900480156115a55780601f1061157a576101008083540402835291602001916115a5565b820191906000526020600020905b81548152906001019060200180831161158857829003601f168201915b5050505050905087565b600660003373ffffffffffffffffffffffffffffffffffffffff1673ffffffffffffffffffffffffffffffffffffffff16815260200190815260200160002060009054906101000a900460ff1661166e576040517f08c379a000000000000000000000000000000000000000000000000000000000815260040180806020018281038252601a8152602001807f596f7520617265206e6f742070617274206f66206f776e65727300000000000081525060200191505060405180910390fd5b806000811015801561168557506002805490508111155b6116f7576040517f08c379a000000000000000000000000000000000000000000000000000000000815260040180806020018281038252601c8152602001807f6e6f742077697468696e207472616e73616374696f6e2072616e67650000000081525060200191505060405180910390fd5b816002818154811061170557fe5b906000526020600020906008020160030160003373ffffffffffffffffffffffffffffffffffffffff1673ffffffffffffffffffffffffffffffffffffffff16815260200190815260200160002060009054906101000a900460ff16156117b7576040517f08c379a000000000000000000000000000000000000000000000000000000000815260040180806020018281038252602a815260200180613361602a913960400191505060405180910390fd5b6000600284815481106117c657fe5b9060005260206000209060080201905060018160030160003373ffffffffffffffffffffffffffffffffffffffff1673ffffffffffffffffffffffffffffffffffffffff16815260200190815260200160002060006101000a81548160ff02191690831515021790555080600501600081548092919060010191905055503373ffffffffffffffffffffffffffffffffffffffff167f7b19c08b12f940ea76949b68d355070966056a862ad2c1aa6676ecbcc9538a61856040518082815260200191505060405180910390a250505050565b600481815481106118a557fe5b90600052602060002090600802016000915090508060000160009054906101000a900473ffffffffffffffffffffffffffffffffffffffff16908060010160009054906101000a900473ffffffffffffffffffffffffffffffffffffffff16908060020154908060040160009054906101000a900460ff1690806005015490806006015490806007018054600181600116156101000203166002900480601f0160208091040260200160405190810160405280929190818152602001828054600181600116156101000203166002900480156119c25780601f10611997576101008083540402835291602001916119c2565b820191906000526020600020905b8154815290600101906020018083116119a557829003601f168201915b5050505050905087565b60066020528060005260406000206000915054906101000a900460ff1681565b60608060608060608060038054905067ffffffffffffffff81118015611a1157600080fd5b50604051908082528060200260200182016040528015611a405781602001602082028036833780820191505090505b509050606060038054905067ffffffffffffffff81118015611a6157600080fd5b50604051908082528060200260200182016040528015611a905781602001602082028036833780820191505090505b509050606060038054905067ffffffffffffffff81118015611ab157600080fd5b50604051908082528060200260200182016040528015611ae05781602001602082028036833780820191505090505b509050606060038054905067ffffffffffffffff81118015611b0157600080fd5b50604051908082528060200260200182016040528015611b305781602001602082028036833780820191505090505b509050606060038054905067ffffffffffffffff81118015611b5157600080fd5b50604051908082528060200260200182016040528015611b805781602001602082028036833780820191505090505b50905060008090505b600380549050811015611d525760038181548110611ba357fe5b906000526020600020906008020160000160009054906101000a900473ffffffffffffffffffffffffffffffffffffffff16868281518110611be157fe5b602002602001019073ffffffffffffffffffffffffffffffffffffffff16908173ffffffffffffffffffffffffffffffffffffffff168152505060038181548110611c2857fe5b906000526020600020906008020160010160009054906101000a900473ffffffffffffffffffffffffffffffffffffffff16858281518110611c6657fe5b602002602001019073ffffffffffffffffffffffffffffffffffffffff16908173ffffffffffffffffffffffffffffffffffffffff168152505060038181548110611cad57fe5b906000526020600020906008020160020154848281518110611ccb57fe5b60200260200101818152505060038181548110611ce457fe5b906000526020600020906008020160050154838281518110611d0257fe5b60200260200101818152505060038181548110611d1b57fe5b906000526020600020906008020160060154828281518110611d3957fe5b6020026020010181815250508080600101915050611b89565b5084848484849950995099509950995050505050509091929394565b60606005805480602002602001604051908101604052809291908181526020018280548015611df257602002820191906000526020600020905b8160009054906101000a900473ffffffffffffffffffffffffffffffffffffffff1673ffffffffffffffffffffffffffffffffffffffff1681526020019060010190808311611da8575b5050505050905090565b600660003373ffffffffffffffffffffffffffffffffffffffff1673ffffffffffffffffffffffffffffffffffffffff16815260200190815260200160002060009054906101000a900460ff16611ebb576040517f08c379a000000000000000000000000000000000000000000000000000000000815260040180806020018281038252601a8152602001807f596f7520617265206e6f742070617274206f66206f776e65727300000000000081525060200191505060405180910390fd5b6000600280549050905060026040518060e001604052803373ffffffffffffffffffffffffffffffffffffffff1681526020018673ffffffffffffffffffffffffffffffffffffffff1681526020018581526020016000151581526020016000815260200183815260200184815250908060018154018082558091505060019003906000526020600020906008020160009091909190915060008201518160000160006101000a81548173ffffffffffffffffffffffffffffffffffffffff021916908373ffffffffffffffffffffffffffffffffffffffff16021790555060208201518160010160006101000a81548173ffffffffffffffffffffffffffffffffffffffff021916908373ffffffffffffffffffffffffffffffffffffffff1602179055506040820151816002015560608201518160040160006101000a81548160ff0219169083151502179055506080820151816005015560a0820151816006015560c082015181600701908051906020019061203b9291906132bb565b5050508373ffffffffffffffffffffffffffffffffffffffff163373ffffffffffffffffffffffffffffffffffffffff167f0f2910e6cd9547e97485dd075dd400d90548c91386d2008a2bf96f5d4ec4f76c8584604051808381526020018281526020019250505060405180910390a350505050565b60075481565b600281815481106120c457fe5b90600052602060002090600802016000915090508060000160009054906101000a900473ffffffffffffffffffffffffffffffffffffffff16908060010160009054906101000a900473ffffffffffffffffffffffffffffffffffffffff16908060020154908060040160009054906101000a900460ff1690806005015490806006015490806007018054600181600116156101000203166002900480601f0160208091040260200160405190810160405280929190818152602001828054600181600116156101000203166002900480156121e15780601f106121b6576101008083540402835291602001916121e1565b820191906000526020600020905b8154815290600101906020018083116121c457829003601f168201915b5050505050905087565b600047905090565b60608060608060608060048054905067ffffffffffffffff8111801561221857600080fd5b506040519080825280602002602001820160405280156122475781602001602082028036833780820191505090505b509050606060048054905067ffffffffffffffff8111801561226857600080fd5b506040519080825280602002602001820160405280156122975781602001602082028036833780820191505090505b509050606060048054905067ffffffffffffffff811180156122b857600080fd5b506040519080825280602002602001820160405280156122e75781602001602082028036833780820191505090505b509050606060048054905067ffffffffffffffff8111801561230857600080fd5b506040519080825280602002602001820160405280156123375781602001602082028036833780820191505090505b509050606060048054905067ffffffffffffffff8111801561235857600080fd5b506040519080825280602002602001820160405280156123875781602001602082028036833780820191505090505b50905060008090505b60048054905081101561255957600481815481106123aa57fe5b906000526020600020906008020160000160009054906101000a900473ffffffffffffffffffffffffffffffffffffffff168682815181106123e857fe5b602002602001019073ffffffffffffffffffffffffffffffffffffffff16908173ffffffffffffffffffffffffffffffffffffffff16815250506004818154811061242f57fe5b906000526020600020906008020160010160009054906101000a900473ffffffffffffffffffffffffffffffffffffffff1685828151811061246d57fe5b602002602001019073ffffffffffffffffffffffffffffffffffffffff16908173ffffffffffffffffffffffffffffffffffffffff1681525050600481815481106124b457fe5b9060005260206000209060080201600201548482815181106124d257fe5b602002602001018181525050600481815481106124eb57fe5b90600052602060002090600802016005015483828151811061250957fe5b6020026020010181815250506004818154811061252257fe5b90600052602060002090600802016006015482828151811061254057fe5b6020026020010181815250508080600101915050612390565b5084848484849950995099509950995050505050509091929394565b3373ffffffffffffffffffffffffffffffffffffffff167f6516b3c931a182ac0cb5aec31a6c8ca76ed627a0b478aded50734de5041893c33447604051808381526020018281526020019250505060405180910390a2565b600660003373ffffffffffffffffffffffffffffffffffffffff1673ffffffffffffffffffffffffffffffffffffffff16815260200190815260200160002060009054906101000a900460ff1661268c576040517f08c379a000000000000000000000000000000000000000000000000000000000815260040180806020018281038252601a8152602001807f596f7520617265206e6f742070617274206f66206f776e65727300000000000081525060200191505060405180910390fd5b60018060006101000a81548160ff02191690831515021790556126ae57600080fd5b600160009054906101000a900460ff1615600160006101000a81548160ff021916908315150217905550565b600660003373ffffffffffffffffffffffffffffffffffffffff1673ffffffffffffffffffffffffffffffffffffffff16815260200190815260200160002060009054906101000a900460ff16612799576040517f08c379a000000000000000000000000000000000000000000000000000000000815260040180806020018281038252601a8152602001807f596f7520617265206e6f742070617274206f66206f776e65727300000000000081525060200191505060405180910390fd5b80600081101580156127b057506002805490508111155b612822576040517f08c379a000000000000000000000000000000000000000000000000000000000815260040180806020018281038252601c8152602001807f6e6f742077697468696e207472616e73616374696f6e2072616e67650000000081525060200191505060405180910390fd5b816002818154811061283057fe5b906000526020600020906008020160040160009054906101000a900460ff16156128c2576040517f08c379a000000000000000000000000000000000000000000000000000000000815260040180806020018281038252601c8152602001807f5472616e73616374696f6e20616c72656164792065786563757465640000000081525060200191505060405180910390fd5b6002600054141561293b576040517f08c379a000000000000000000000000000000000000000000000000000000000815260040180806020018281038252601f8152602001807f5265656e7472616e637947756172643a207265656e7472616e742063616c6c0081525060200191505060405180910390fd5b600260008190555060018060006101000a81548160ff021916908315150217905561296557600080fd5b60006002848154811061297457fe5b90600052602060002090600802019050600754816005015410156129e3576040517f08c379a000000000000000000000000000000000000000000000000000000000815260040180806020018281038252603a81526020018061338b603a913960400191505060405180910390fd5b60018160040160006101000a81548160ff0219169083151502179055508060010160009054906101000a900473ffffffffffffffffffffffffffffffffffffffff1673ffffffffffffffffffffffffffffffffffffffff166108fc82600201549081150290604051600060405180830381858888f19350505050158015612a6e573d6000803e3d6000fd5b5060038190806001815401808255809150506001900390600052602060002090600802016000909190919091506000820160009054906101000a900473ffffffffffffffffffffffffffffffffffffffff168160000160006101000a81548173ffffffffffffffffffffffffffffffffffffffff021916908373ffffffffffffffffffffffffffffffffffffffff1602179055506001820160009054906101000a900473ffffffffffffffffffffffffffffffffffffffff168160010160006101000a81548173ffffffffffffffffffffffffffffffffffffffff021916908373ffffffffffffffffffffffffffffffffffffffff160217905550600282015481600201556004820160009054906101000a900460ff168160040160006101000a81548160ff021916908315150217905550600582015481600501556006820154816006015560078201816007019080546001816001161561010002031660029004612bdb9291906131ec565b505050600260016002805490500381548110612bf357fe5b906000526020600020906008020160028581548110612c0e57fe5b90600052602060002090600802016000820160009054906101000a900473ffffffffffffffffffffffffffffffffffffffff168160000160006101000a81548173ffffffffffffffffffffffffffffffffffffffff021916908373ffffffffffffffffffffffffffffffffffffffff1602179055506001820160009054906101000a900473ffffffffffffffffffffffffffffffffffffffff168160010160006101000a81548173ffffffffffffffffffffffffffffffffffffffff021916908373ffffffffffffffffffffffffffffffffffffffff160217905550600282015481600201556004820160009054906101000a900460ff168160040160006101000a81548160ff021916908315150217905550600582015481600501556006820154816006015560078201816007019080546001816001161561010002031660029004612d5c9291906131ec565b509050506002805480612d6b57fe5b6001900381819060005260206000209060080201600080820160006101000a81549073ffffffffffffffffffffffffffffffffffffffff02191690556001820160006101000a81549073ffffffffffffffffffffffffffffffffffffffff021916905560028201600090556004820160006101000a81549060ff021916905560058201600090556006820160009055600782016000612e0a9190613273565b505090553373ffffffffffffffffffffffffffffffffffffffff167fca97e19a0e104553951d9506767a014469c3147f77816f5e8162adccf3725338856040518082815260200191505060405180910390a2506001600081905550505050565b60608060608060608060028054905067ffffffffffffffff81118015612e8f57600080fd5b50604051908082528060200260200182016040528015612ebe5781602001602082028036833780820191505090505b509050606060028054905067ffffffffffffffff81118015612edf57600080fd5b50604051908082528060200260200182016040528015612f0e5781602001602082028036833780820191505090505b509050606060028054905067ffffffffffffffff81118015612f2f57600080fd5b50604051908082528060200260200182016040528015612f5e5781602001602082028036833780820191505090505b509050606060028054905067ffffffffffffffff81118015612f7f57600080fd5b50604051908082528060200260200182016040528015612fae5781602001602082028036833780820191505090505b509050606060028054905067ffffffffffffffff81118015612fcf57600080fd5b50604051908082528060200260200182016040528015612ffe5781602001602082028036833780820191505090505b50905060008090505b6002805490508110156131d0576002818154811061302157fe5b906000526020600020906008020160000160009054906101000a900473ffffffffffffffffffffffffffffffffffffffff1686828151811061305f57fe5b602002602001019073ffffffffffffffffffffffffffffffffffffffff16908173ffffffffffffffffffffffffffffffffffffffff1681525050600281815481106130a657fe5b906000526020600020906008020160010160009054906101000a900473ffffffffffffffffffffffffffffffffffffffff168582815181106130e457fe5b602002602001019073ffffffffffffffffffffffffffffffffffffffff16908173ffffffffffffffffffffffffffffffffffffffff16815250506002818154811061312b57fe5b90600052602060002090600802016002015484828151811061314957fe5b6020026020010181815250506002818154811061316257fe5b90600052602060002090600802016005015483828151811061318057fe5b6020026020010181815250506002818154811061319957fe5b9060005260206000209060080201600601548282815181106131b757fe5b6020026020010181815250508080600101915050613007565b5084848484849950995099509950995050505050509091929394565b828054600181600116156101000203166002900490600052602060002090601f016020900481019282601f106132255780548555613262565b8280016001018555821561326257600052602060002091601f016020900482015b82811115613261578254825591600101919060010190613246565b5b50905061326f919061333b565b5090565b50805460018160011615610100020316600290046000825580601f1061329957506132b8565b601f0160209004906000526020600020908101906132b7919061333b565b5b50565b828054600181600116156101000203166002900490600052602060002090601f016020900481019282601f106132fc57805160ff191683800117855561332a565b8280016001018555821561332a579182015b8281111561332957825182559160200191906001019061330e565b5b509050613337919061333b565b5090565b61335d91905b80821115613359576000816000905550600101613341565b5090565b9056fe54686973205472616e73616374696f6e2068617320616c7265616479206265656e20617070726f76656463616e6e6f742045786563757465205472616e73616374696f6e2d496e76616c6964204e756d626572206f6620436f6e6669726d6174696f6e73a2646970667358221220252c086e3b5a468c4245090148d98eb6a6be1c30af72f8c13a89df9d998728b864736f6c634300060a00334974732061206d756c74692d5369676e61747572652077616c6c65742c20796f75206e656564206d6f7265207468616e206f6e65206f776e657273",
  "immutableReferences": {},
  "source": "// SPDX-License-Identifier: GPL-3.0\npragma solidity >=0.4.2 <0.8.0;\n//pragma experimental ABIEncoderV2;\nimport \"@openzeppelin/contracts/utils/ReentrancyGuard.sol\";\ncontract MultiSigWallet is ReentrancyGuard{\n    //define a struct- Transaction\n    struct Transaction{\n        address txSender;\n        address payable destination;\n        uint amount;\n        mapping(address => bool) isApproved;\n        bool isExecuted;\n        uint noOfConfirmations;\n        uint txId;\n        bytes data;\n         \n    }\n    bool isActive = true;\n    function toggleCircuitBreaker() external onlyOwner contractIsActive() {\n        isActive = !isActive;\n    }\n    modifier contractIsActive(){\n        require(isActive = true);\n        _;\n    }\n    //array of addres ownrs in Remix js VM for deployment [\"0x5B38Da6a701c568545dCfcB03FcB875f56beddC4\", \"0xAb8483F64d9C6d1EcF9b849Ae677dD3315835cb2\", \"0x4B20993Bc481177ec7E8f571ceCaE8A9e22C02db\"], 2\n    //array of address owners from metamask for deployment [\"0x0d6589Fcf3b02b5723c6DDb47756382d865f3Af5\", \"0x61844cD4148A53321194a9a50Ef97Fb0D4364C3A\", \"0x51520526F6aB6fE5658782F4D5C742Cd020b143f\"], 2\n    Transaction[] public transactions;//all or pending transactions\n    Transaction[] public successfulTransactions;//successfulTransactions\n    Transaction[] public revokedTransactions;//successfulTransactions\n    address[]public owners;\n    mapping(address => bool)public isOwner;\n    uint public requiredConfirmations;\n    constructor(address[] memory _owners, uint _requiredConfirmations)public {\n        require(_owners.length > 1, 'Its a multi-Signature wallet, you need more than one owners');\n        require(_requiredConfirmations > 1 && _requiredConfirmations <= _owners.length);\n        for(uint i; i < _owners.length; i++){\n            address _owner = _owners[i];\n            require(_owner != address(0), \"This is not a valid owner\");\n            require(!isOwner[_owner], \"owner not unique\");\n            isOwner[_owner] = true;\n            owners.push(_owner);\n        }\n        requiredConfirmations = _requiredConfirmations;\n    }\n    //fallback function to recieve ether\n    fallback() payable external {\n        emit deposit2Contract(msg.sender, msg.value, address(this).balance);\n    }\n    function deposit () payable external {\n        emit deposit2Contract(msg.sender, msg.value, address(this).balance);\n    }\n    //function to check contract balance\n    function checkBalance() public view returns(uint256){\n        return address(this).balance;\n    }\n    //events\n    //event for TransactionProposed\n    event TransactionProposed(address indexed owner, address indexed destination, uint amount,uint transactionId);\n    //event for TransactionApproved\n    event TransactionApproved(address indexed owner,uint transactionId);\n    //event for execution\n    event ExecutedTransaction(address indexed owner,uint transactionId);\n    //event for rejected transaction\n    event rejectedTransaction(address indexed owner,uint transactionId);\n    //event for fallback\n    event contractFallback(address indexed sender, uint amount, uint balance);\n    //deposit event\n    event deposit2Contract(address indexed sender, uint amount, uint balance);\n    // mmodifier to check if caller is part of owners\n    modifier onlyOwner(){\n        require(isOwner[msg.sender], 'You are not part of owners');\n        _;\n    }\n    //modifier to check if Transaction Exist\n    modifier transactionExist(uint _transactionId){\n        require(_transactionId >= 0 && _transactionId <= transactions.length,\"not within transaction range\" );\n        _;\n    }\n    //mmodifier to check if transaction is not yet notApprovedYet\n    modifier notApprovedYet(uint _transactionId){\n        require(!transactions[_transactionId].isApproved[msg.sender] ,\"This Transaction has already been approved\");\n        _;\n    }\n    //modifier to check that transaction is not executed yet\n    modifier notExecutedYet(uint _transactionId){\n        require(!transactions[_transactionId].isExecuted, \"Transaction already executed\");\n        _;\n    }\n    //FUNCTIONS\n    function viewOwners() public view returns(address[]memory){\n        return owners;\n    }\n    \n    //function to view  pending transactions\n    function viewTransactions() external view returns(address[]memory,address[]memory,uint[]memory,uint[]memory, uint[]memory){\n        address[]memory txSenders = new address[](transactions.length);\n        address[]memory destinations = new address[](transactions.length);\n        uint[]memory amounts = new uint[](transactions.length);\n        uint[]memory noOfConfirmationss = new uint[](transactions.length);\n        uint[]memory txIds = new uint[](transactions.length);\n        \n        for(uint i = 0; i< transactions.length; i++){\n            txSenders[i] = transactions[i].txSender;\n            destinations[i] = transactions[i].destination;\n            amounts[i] = transactions[i].amount;\n            noOfConfirmationss[i] = transactions[i].noOfConfirmations;\n            txIds[i] = transactions[i].txId;\n            \n        }\n        \n        return(txSenders,destinations, amounts, noOfConfirmationss,txIds);\n    } \n    \n    //function to view successfulTransactions\n    function viewSuccessfulTransactions()public view returns(address[]memory,address[]memory,uint[]memory,uint[]memory, uint[]memory){\n        address[]memory txSenders = new address[](successfulTransactions.length);\n        address[]memory destinations = new address[](successfulTransactions.length);\n        uint[]memory amounts = new uint[](successfulTransactions.length);\n        uint[]memory noOfConfirmationss = new uint[](successfulTransactions.length);\n        uint[]memory txIds = new uint[](successfulTransactions.length);\n        \n        for(uint i = 0; i< successfulTransactions.length; i++){\n            txSenders[i] = successfulTransactions[i].txSender;\n            destinations[i] = successfulTransactions[i].destination;\n            amounts[i] = successfulTransactions[i].amount;\n            noOfConfirmationss[i] = successfulTransactions[i].noOfConfirmations;\n            txIds[i] = successfulTransactions[i].txId;\n            \n        }\n        \n        return(txSenders,destinations, amounts, noOfConfirmationss,txIds);\n    } \n    \n    //function to view revokedTransactions\n    function viewFailedTransactions()public view returns(address[]memory,address[]memory,uint[]memory,uint[]memory,uint[]memory){\n        address[]memory txSenders = new address[](revokedTransactions.length);\n        address[]memory destinations = new address[](revokedTransactions.length);\n        uint[]memory amounts = new uint[](revokedTransactions.length);\n        uint[]memory noOfConfirmationss = new uint[](revokedTransactions.length);\n        uint[]memory txIds = new uint[](revokedTransactions.length);\n        \n        for(uint i = 0; i< revokedTransactions.length; i++){\n            txSenders[i] = revokedTransactions[i].txSender;\n            destinations[i] = revokedTransactions[i].destination;\n            amounts[i] = revokedTransactions[i].amount;\n            noOfConfirmationss[i] = revokedTransactions[i].noOfConfirmations;\n            txIds[i] = revokedTransactions[i].txId;\n            \n        }\n        \n        return(txSenders,destinations, amounts, noOfConfirmationss,txIds);\n    } \n    //propose or submit a transaction\n    function proposeTransaction(address payable _destination, uint _amount, bytes memory _data)\n    public\n    onlyOwner\n    {\n        uint _transactionId = transactions.length;\n        transactions.push(Transaction({\n            txSender: msg.sender,\n            destination: _destination,\n            amount: _amount,\n            isExecuted: false,\n            noOfConfirmations: 0,\n            txId: _transactionId,\n            data: _data\n        }));\n        emit TransactionProposed(msg.sender, _destination, _amount, _transactionId);\n    }\n    //approve transaction for execution\n    function approveTransaction(uint _transactionId)\n    public\n    onlyOwner\n    transactionExist(_transactionId)\n    notApprovedYet(_transactionId)\n    {\n        Transaction storage transaction = transactions[_transactionId];\n        transaction.isApproved[msg.sender] = true;\n        transaction.noOfConfirmations++;\n        emit TransactionApproved(msg.sender, _transactionId);\n    }\n    //execute transaction\n    function executeTransaction(uint _transactionId)public onlyOwner transactionExist(_transactionId) notExecutedYet(_transactionId) nonReentrant() contractIsActive(){\n        Transaction storage transaction = transactions[_transactionId];\n        require(transaction.noOfConfirmations >= requiredConfirmations,\n            \"cannot Execute Transaction-Invalid Number of Confirmations\"\n        );\n        transaction.isExecuted = true;\n       // (bool success,) = transaction.destination.call{value: transaction.amount}(transaction.data);\n        transaction.destination.transfer(transaction.amount);\n        //push transaction to list of successful transactions\n        successfulTransactions.push(transaction);\n        //remove transactions from list of pending transactions\n            transactions[_transactionId] = transactions[transactions.length-1];\n        \n            transactions.pop();\n        //emit ExecutedTransaction event\n        emit ExecutedTransaction(msg.sender, _transactionId);\n        \n    }\n   \n\n\n\n    //function to revoke transaction\n    function rejectTransaction(uint _transactionId)public onlyOwner transactionExist(_transactionId) notExecutedYet(_transactionId) {\n        Transaction storage transaction = transactions[_transactionId];\n        require(transaction.isApproved[msg.sender], \"Transaction not Approved\");\n\n        transaction.isApproved[msg.sender] = false;\n        transaction.noOfConfirmations -= 1;\n          revokedTransactions.push(transaction);\n        //remove transactions from list of transactions\n        \n            transactions[_transactionId] = transactions[transactions.length-1];\n        \n            transactions.pop();\n        \n         emit rejectedTransaction(msg.sender, _transactionId);\n    }\n    \n    \n}\n",
  "sourcePath": "/home/jeremiah/Project/ConsensysAcadProject-MultiSig/contracts/MultiSigWallet.sol",
  "compiler": {
    "name": "solc",
    "version": "0.6.10+commit.00c0fcaf.Emscripten.clang"
  },
  "schemaVersion": "3.3.3",
  "updatedAt": "2021-01-04T10:48:12.295Z",
  "devdoc": {
    "methods": {}
  },
  "userdoc": {
    "methods": {}
  }
}